{
  "contractName": "KrakenPriceTicker",
  "abi": [
    {
      "constant": true,
      "inputs": [],
      "name": "ETHXBT",
      "outputs": [
        {
          "name": "",
          "type": "string"
        }
      ],
      "payable": false,
      "stateMutability": "view",
      "type": "function"
    },
    {
      "inputs": [],
      "payable": false,
      "stateMutability": "nonpayable",
      "type": "constructor"
    },
    {
      "anonymous": false,
      "inputs": [
        {
          "indexed": false,
          "name": "description",
          "type": "string"
        }
      ],
      "name": "newOraclizeQuery",
      "type": "event"
    },
    {
      "anonymous": false,
      "inputs": [
        {
          "indexed": false,
          "name": "price",
          "type": "string"
        }
      ],
      "name": "newKrakenPriceTicker",
      "type": "event"
    },
    {
      "constant": false,
      "inputs": [
        {
          "name": "myid",
          "type": "bytes32"
        },
        {
          "name": "result",
          "type": "string"
        }
      ],
      "name": "__callback",
      "outputs": [],
      "payable": false,
      "stateMutability": "nonpayable",
      "type": "function"
    },
    {
      "constant": false,
      "inputs": [
        {
          "name": "myid",
          "type": "bytes32"
        },
        {
          "name": "result",
          "type": "string"
        },
        {
          "name": "proof",
          "type": "bytes"
        }
      ],
      "name": "__callback",
      "outputs": [],
      "payable": false,
      "stateMutability": "nonpayable",
      "type": "function"
    },
    {
      "constant": false,
      "inputs": [],
      "name": "update",
      "outputs": [],
      "payable": true,
      "stateMutability": "payable",
      "type": "function"
    }
  ],
  "bytecode": "0x606060405234156200001057600080fd5b736f485c8bf6fc43ea212e93bbf8ce046c7f1cb4756000806101000a81548173ffffffffffffffffffffffffffffffffffffffff021916908373ffffffffffffffffffffffffffffffffffffffff160217905550620000cb60017f01000000000000000000000000000000000000000000000000000000000000000260107f01000000000000000000000000000000000000000000000000000000000000000217620000d164010000000002620016f8176401000000009004565b62000aa1565b60008060009054906101000a900473ffffffffffffffffffffffffffffffffffffffff1673ffffffffffffffffffffffffffffffffffffffff1614806200015757506000620001556000809054906101000a900473ffffffffffffffffffffffffffffffffffffffff166200043a640100000000026200119d176401000000009004565b145b156200017f576200017d60006200044564010000000002620011a8176401000000009004565b505b6000809054906101000a900473ffffffffffffffffffffffffffffffffffffffff1673ffffffffffffffffffffffffffffffffffffffff166338cc48316040518163ffffffff167c0100000000000000000000000000000000000000000000000000000000028152600401602060405180830381600087803b15156200020457600080fd5b5af115156200021257600080fd5b5050506040518051905073ffffffffffffffffffffffffffffffffffffffff16600160009054906101000a900473ffffffffffffffffffffffffffffffffffffffff1673ffffffffffffffffffffffffffffffffffffffff1614151562000351576000809054906101000a900473ffffffffffffffffffffffffffffffffffffffff1673ffffffffffffffffffffffffffffffffffffffff166338cc48316040518163ffffffff167c0100000000000000000000000000000000000000000000000000000000028152600401602060405180830381600087803b1515620002f857600080fd5b5af115156200030657600080fd5b50505060405180519050600160006101000a81548173ffffffffffffffffffffffffffffffffffffffff021916908373ffffffffffffffffffffffffffffffffffffffff1602179055505b600160009054906101000a900473ffffffffffffffffffffffffffffffffffffffff1673ffffffffffffffffffffffffffffffffffffffff1663688dcfd7826040518263ffffffff167c010000000000000000000000000000000000000000000000000000000002815260040180827effffffffffffffffffffffffffffffffffffffffffffffffffffffffffffff19167effffffffffffffffffffffffffffffffffffffffffffffffffffffffffffff19168152602001915050600060405180830381600087803b15156200042657600080fd5b5af115156200043457600080fd5b50505050565b6000813b9050919050565b6000806200047b731d3b2638a7cc9f2cb3d298a3da7a90b67e5506ed6200043a640100000000026200119d176401000000009004565b11156200053457731d3b2638a7cc9f2cb3d298a3da7a90b67e5506ed6000806101000a81548173ffffffffffffffffffffffffffffffffffffffff021916908373ffffffffffffffffffffffffffffffffffffffff1602179055506200052a6040805190810160405280600b81526020017f6574685f6d61696e6e6574000000000000000000000000000000000000000000815250620009d66401000000000262001639176401000000009004565b60019050620009d1565b60006200056973c03a2615d5efaf5f49f60b7bb6583eaec212fdf16200043a640100000000026200119d176401000000009004565b1115620006225773c03a2615d5efaf5f49f60b7bb6583eaec212fdf16000806101000a81548173ffffffffffffffffffffffffffffffffffffffff021916908373ffffffffffffffffffffffffffffffffffffffff160217905550620006186040805190810160405280600c81526020017f6574685f726f707374656e330000000000000000000000000000000000000000815250620009d66401000000000262001639176401000000009004565b60019050620009d1565b60006200065773b7a07bcf2ba2f2703b24c0691b5278999c59ac7e6200043a640100000000026200119d176401000000009004565b1115620007105773b7a07bcf2ba2f2703b24c0691b5278999c59ac7e6000806101000a81548173ffffffffffffffffffffffffffffffffffffffff021916908373ffffffffffffffffffffffffffffffffffffffff160217905550620007066040805190810160405280600981526020017f6574685f6b6f76616e0000000000000000000000000000000000000000000000815250620009d66401000000000262001639176401000000009004565b60019050620009d1565b60006200074573146500cfd35b22e4a392fe0adc06de1a1368ed486200043a640100000000026200119d176401000000009004565b1115620007fe5773146500cfd35b22e4a392fe0adc06de1a1368ed486000806101000a81548173ffffffffffffffffffffffffffffffffffffffff021916908373ffffffffffffffffffffffffffffffffffffffff160217905550620007f46040805190810160405280600b81526020017f6574685f72696e6b656279000000000000000000000000000000000000000000815250620009d66401000000000262001639176401000000009004565b60019050620009d1565b600062000833736f485c8bf6fc43ea212e93bbf8ce046c7f1cb4756200043a640100000000026200119d176401000000009004565b11156200089857736f485c8bf6fc43ea212e93bbf8ce046c7f1cb4756000806101000a81548173ffffffffffffffffffffffffffffffffffffffff021916908373ffffffffffffffffffffffffffffffffffffffff16021790555060019050620009d1565b6000620008cd7320e12a1f859b3feae5fb2a0a32c18f5a65555bbf6200043a640100000000026200119d176401000000009004565b111562000932577320e12a1f859b3feae5fb2a0a32c18f5a65555bbf6000806101000a81548173ffffffffffffffffffffffffffffffffffffffff021916908373ffffffffffffffffffffffffffffffffffffffff16021790555060019050620009d1565b6000620009677351efaf4c8b3c9afbd5ab9f4bbc82784ab6ef8faa6200043a640100000000026200119d176401000000009004565b1115620009cc577351efaf4c8b3c9afbd5ab9f4bbc82784ab6ef8faa6000806101000a81548173ffffffffffffffffffffffffffffffffffffffff021916908373ffffffffffffffffffffffffffffffffffffffff16021790555060019050620009d1565b600090505b919050565b8060029080519060200190620009ee929190620009f2565b5050565b828054600181600116156101000203166002900490600052602060002090601f016020900481019282601f1062000a3557805160ff191683800117855562000a66565b8280016001018555821562000a66579182015b8281111562000a6557825182559160200191906001019062000a48565b5b50905062000a75919062000a79565b5090565b62000a9e91905b8082111562000a9a57600081600090555060010162000a80565b5090565b90565b611a588062000ab16000396000f300606060405260043610610062576000357c0100000000000000000000000000000000000000000000000000000000900463ffffffff16806327dc297e1461006757806338bbfa50146100d1578063a2e620451461017e578063b776447514610188575b600080fd5b341561007257600080fd5b6100cf60048080356000191690602001909190803590602001908201803590602001908080601f01602080910402602001604051908101604052809392919081815260200183838082843782019150505050505091905050610216565b005b34156100dc57600080fd5b61017c60048080356000191690602001909190803590602001908201803590602001908080601f0160208091040260200160405190810160405280939291908181526020018383808284378201915050505050509190803590602001908201803590602001908080601f01602080910402602001604051908101604052809392919081815260200183838082843782019150505050505091905050610248565b005b61018661035f565b005b341561019357600080fd5b61019b6105a1565b6040518080602001828103825283818151815260200191508051906020019080838360005b838110156101db5780820151818401526020810190506101c0565b50505050905090810190601f1680156102085780820380516001836020036101000a031916815260200191505b509250505060405180910390f35b6102448282600060405180591061022a5750595b9080825280601f01601f1916602001820160405250610248565b5050565b61025061063f565b73ffffffffffffffffffffffffffffffffffffffff163373ffffffffffffffffffffffffffffffffffffffff1614151561028957600080fd5b816005908051906020019061029f929190611653565b507ff5d9356ebb584d3c57a6d507d145b1e4a28ad9c1f5320d7f58edfed2a5aa6ba66005604051808060200182810382528381815460018160011615610100020316600290048152602001915080546001816001161561010002031660029004801561034c5780601f106103215761010080835404028352916020019161034c565b820191906000526020600020905b81548152906001019060200180831161032f57829003601f168201915b50509250505060405180910390a1505050565b3073ffffffffffffffffffffffffffffffffffffffff16316103b56040805190810160405280600381526020017f55524c000000000000000000000000000000000000000000000000000000000081525061092e565b1115610474577f46cb989ef9cef13e930e3b7f286225a086e716a90d63e0b7da85d310a9db0c9a60405180806020018281038252604b8152602001807f4f7261636c697a6520717565727920776173204e4f542073656e742c20706c6581526020017f6173652061646420736f6d652045544820746f20636f76657220666f7220746881526020017f652071756572792066656500000000000000000000000000000000000000000081525060600191505060405180910390a161059f565b7f46cb989ef9cef13e930e3b7f286225a086e716a90d63e0b7da85d310a9db0c9a6040518080602001828103825260358152602001807f4f7261636c697a65207175657279207761732073656e742c207374616e64696e81526020017f6720627920666f722074686520616e737765722e2e000000000000000000000081525060400191505060405180910390a161059d6040805190810160405280600381526020017f55524c0000000000000000000000000000000000000000000000000000000000815250606060405190810160405280603a81526020017f6a736f6e28687474703a2f2f6170692e66697865722e696f2f6c61746573743f81526020017f73796d626f6c733d5553442c474250292e72617465732e474250000000000000815250610c8f565b505b565b60058054600181600116156101000203166002900480601f0160208091040260200160405190810160405280929190818152602001828054600181600116156101000203166002900480156106375780601f1061060c57610100808354040283529160200191610637565b820191906000526020600020905b81548152906001019060200180831161061a57829003601f168201915b505050505081565b6000806000809054906101000a900473ffffffffffffffffffffffffffffffffffffffff1673ffffffffffffffffffffffffffffffffffffffff1614806106af575060006106ad6000809054906101000a900473ffffffffffffffffffffffffffffffffffffffff1661119d565b145b156106c0576106be60006111a8565b505b6000809054906101000a900473ffffffffffffffffffffffffffffffffffffffff1673ffffffffffffffffffffffffffffffffffffffff166338cc48316040518163ffffffff167c0100000000000000000000000000000000000000000000000000000000028152600401602060405180830381600087803b151561074457600080fd5b5af1151561075157600080fd5b5050506040518051905073ffffffffffffffffffffffffffffffffffffffff16600160009054906101000a900473ffffffffffffffffffffffffffffffffffffffff1673ffffffffffffffffffffffffffffffffffffffff1614151561088d576000809054906101000a900473ffffffffffffffffffffffffffffffffffffffff1673ffffffffffffffffffffffffffffffffffffffff166338cc48316040518163ffffffff167c0100000000000000000000000000000000000000000000000000000000028152600401602060405180830381600087803b151561083557600080fd5b5af1151561084257600080fd5b50505060405180519050600160006101000a81548173ffffffffffffffffffffffffffffffffffffffff021916908373ffffffffffffffffffffffffffffffffffffffff1602179055505b600160009054906101000a900473ffffffffffffffffffffffffffffffffffffffff1673ffffffffffffffffffffffffffffffffffffffff1663c281d19e6040518163ffffffff167c0100000000000000000000000000000000000000000000000000000000028152600401602060405180830381600087803b151561091257600080fd5b5af1151561091f57600080fd5b50505060405180519050905090565b6000806000809054906101000a900473ffffffffffffffffffffffffffffffffffffffff1673ffffffffffffffffffffffffffffffffffffffff16148061099e5750600061099c6000809054906101000a900473ffffffffffffffffffffffffffffffffffffffff1661119d565b145b156109af576109ad60006111a8565b505b6000809054906101000a900473ffffffffffffffffffffffffffffffffffffffff1673ffffffffffffffffffffffffffffffffffffffff166338cc48316040518163ffffffff167c0100000000000000000000000000000000000000000000000000000000028152600401602060405180830381600087803b1515610a3357600080fd5b5af11515610a4057600080fd5b5050506040518051905073ffffffffffffffffffffffffffffffffffffffff16600160009054906101000a900473ffffffffffffffffffffffffffffffffffffffff1673ffffffffffffffffffffffffffffffffffffffff16141515610b7c576000809054906101000a900473ffffffffffffffffffffffffffffffffffffffff1673ffffffffffffffffffffffffffffffffffffffff166338cc48316040518163ffffffff167c0100000000000000000000000000000000000000000000000000000000028152600401602060405180830381600087803b1515610b2457600080fd5b5af11515610b3157600080fd5b50505060405180519050600160006101000a81548173ffffffffffffffffffffffffffffffffffffffff021916908373ffffffffffffffffffffffffffffffffffffffff1602179055505b600160009054906101000a900473ffffffffffffffffffffffffffffffffffffffff1673ffffffffffffffffffffffffffffffffffffffff1663524f3889836040518263ffffffff167c01000000000000000000000000000000000000000000000000000000000281526004018080602001828103825283818151815260200191508051906020019080838360005b83811015610c26578082015181840152602081019050610c0b565b50505050905090810190601f168015610c535780820380516001836020036101000a031916815260200191505b5092505050602060405180830381600087803b1515610c7157600080fd5b5af11515610c7e57600080fd5b505050604051805190509050919050565b60008060008060009054906101000a900473ffffffffffffffffffffffffffffffffffffffff1673ffffffffffffffffffffffffffffffffffffffff161480610d0157506000610cff6000809054906101000a900473ffffffffffffffffffffffffffffffffffffffff1661119d565b145b15610d1257610d1060006111a8565b505b6000809054906101000a900473ffffffffffffffffffffffffffffffffffffffff1673ffffffffffffffffffffffffffffffffffffffff166338cc48316040518163ffffffff167c0100000000000000000000000000000000000000000000000000000000028152600401602060405180830381600087803b1515610d9657600080fd5b5af11515610da357600080fd5b5050506040518051905073ffffffffffffffffffffffffffffffffffffffff16600160009054906101000a900473ffffffffffffffffffffffffffffffffffffffff1673ffffffffffffffffffffffffffffffffffffffff16141515610edf576000809054906101000a900473ffffffffffffffffffffffffffffffffffffffff1673ffffffffffffffffffffffffffffffffffffffff166338cc48316040518163ffffffff167c0100000000000000000000000000000000000000000000000000000000028152600401602060405180830381600087803b1515610e8757600080fd5b5af11515610e9457600080fd5b50505060405180519050600160006101000a81548173ffffffffffffffffffffffffffffffffffffffff021916908373ffffffffffffffffffffffffffffffffffffffff1602179055505b600160009054906101000a900473ffffffffffffffffffffffffffffffffffffffff1673ffffffffffffffffffffffffffffffffffffffff1663524f3889856040518263ffffffff167c01000000000000000000000000000000000000000000000000000000000281526004018080602001828103825283818151815260200191508051906020019080838360005b83811015610f89578082015181840152602081019050610f6e565b50505050905090810190601f168015610fb65780820380516001836020036101000a031916815260200191505b5092505050602060405180830381600087803b1515610fd457600080fd5b5af11515610fe157600080fd5b50505060405180519050905062030d403a02670de0b6b3a7640000018111156110105760006001029150611196565b600160009054906101000a900473ffffffffffffffffffffffffffffffffffffffff1673ffffffffffffffffffffffffffffffffffffffff1663adf59f9982600087876040518563ffffffff167c0100000000000000000000000000000000000000000000000000000000028152600401808481526020018060200180602001838103835285818151815260200191508051906020019080838360005b838110156110c85780820151818401526020810190506110ad565b50505050905090810190601f1680156110f55780820380516001836020036101000a031916815260200191505b50838103825284818151815260200191508051906020019080838360005b8381101561112e578082015181840152602081019050611113565b50505050905090810190601f16801561115b5780820380516001836020036101000a031916815260200191505b50955050505050506020604051808303818588803b151561117b57600080fd5b5af1151561118857600080fd5b505050506040518051905091505b5092915050565b6000813b9050919050565b6000806111c8731d3b2638a7cc9f2cb3d298a3da7a90b67e5506ed61119d565b111561126957731d3b2638a7cc9f2cb3d298a3da7a90b67e5506ed6000806101000a81548173ffffffffffffffffffffffffffffffffffffffff021916908373ffffffffffffffffffffffffffffffffffffffff1602179055506112606040805190810160405280600b81526020017f6574685f6d61696e6e6574000000000000000000000000000000000000000000815250611639565b60019050611634565b600061128873c03a2615d5efaf5f49f60b7bb6583eaec212fdf161119d565b11156113295773c03a2615d5efaf5f49f60b7bb6583eaec212fdf16000806101000a81548173ffffffffffffffffffffffffffffffffffffffff021916908373ffffffffffffffffffffffffffffffffffffffff1602179055506113206040805190810160405280600c81526020017f6574685f726f707374656e330000000000000000000000000000000000000000815250611639565b60019050611634565b600061134873b7a07bcf2ba2f2703b24c0691b5278999c59ac7e61119d565b11156113e95773b7a07bcf2ba2f2703b24c0691b5278999c59ac7e6000806101000a81548173ffffffffffffffffffffffffffffffffffffffff021916908373ffffffffffffffffffffffffffffffffffffffff1602179055506113e06040805190810160405280600981526020017f6574685f6b6f76616e0000000000000000000000000000000000000000000000815250611639565b60019050611634565b600061140873146500cfd35b22e4a392fe0adc06de1a1368ed4861119d565b11156114a95773146500cfd35b22e4a392fe0adc06de1a1368ed486000806101000a81548173ffffffffffffffffffffffffffffffffffffffff021916908373ffffffffffffffffffffffffffffffffffffffff1602179055506114a06040805190810160405280600b81526020017f6574685f72696e6b656279000000000000000000000000000000000000000000815250611639565b60019050611634565b60006114c8736f485c8bf6fc43ea212e93bbf8ce046c7f1cb47561119d565b111561152b57736f485c8bf6fc43ea212e93bbf8ce046c7f1cb4756000806101000a81548173ffffffffffffffffffffffffffffffffffffffff021916908373ffffffffffffffffffffffffffffffffffffffff16021790555060019050611634565b600061154a7320e12a1f859b3feae5fb2a0a32c18f5a65555bbf61119d565b11156115ad577320e12a1f859b3feae5fb2a0a32c18f5a65555bbf6000806101000a81548173ffffffffffffffffffffffffffffffffffffffff021916908373ffffffffffffffffffffffffffffffffffffffff16021790555060019050611634565b60006115cc7351efaf4c8b3c9afbd5ab9f4bbc82784ab6ef8faa61119d565b111561162f577351efaf4c8b3c9afbd5ab9f4bbc82784ab6ef8faa6000806101000a81548173ffffffffffffffffffffffffffffffffffffffff021916908373ffffffffffffffffffffffffffffffffffffffff16021790555060019050611634565b600090505b919050565b806002908051906020019061164f929190611653565b5050565b828054600181600116156101000203166002900490600052602060002090601f016020900481019282601f1061169457805160ff19168380011785556116c2565b828001600101855582156116c2579182015b828111156116c15782518255916020019190600101906116a6565b5b5090506116cf91906116d3565b5090565b6116f591905b808211156116f15760008160009055506001016116d9565b5090565b90565b60008060009054906101000a900473ffffffffffffffffffffffffffffffffffffffff1673ffffffffffffffffffffffffffffffffffffffff161480611767575060006117656000809054906101000a900473ffffffffffffffffffffffffffffffffffffffff1661119d565b145b156117785761177660006111a8565b505b6000809054906101000a900473ffffffffffffffffffffffffffffffffffffffff1673ffffffffffffffffffffffffffffffffffffffff166338cc48316040518163ffffffff167c0100000000000000000000000000000000000000000000000000000000028152600401602060405180830381600087803b15156117fc57600080fd5b5af1151561180957600080fd5b5050506040518051905073ffffffffffffffffffffffffffffffffffffffff16600160009054906101000a900473ffffffffffffffffffffffffffffffffffffffff1673ffffffffffffffffffffffffffffffffffffffff16141515611945576000809054906101000a900473ffffffffffffffffffffffffffffffffffffffff1673ffffffffffffffffffffffffffffffffffffffff166338cc48316040518163ffffffff167c0100000000000000000000000000000000000000000000000000000000028152600401602060405180830381600087803b15156118ed57600080fd5b5af115156118fa57600080fd5b50505060405180519050600160006101000a81548173ffffffffffffffffffffffffffffffffffffffff021916908373ffffffffffffffffffffffffffffffffffffffff1602179055505b600160009054906101000a900473ffffffffffffffffffffffffffffffffffffffff1673ffffffffffffffffffffffffffffffffffffffff1663688dcfd7826040518263ffffffff167c010000000000000000000000000000000000000000000000000000000002815260040180827effffffffffffffffffffffffffffffffffffffffffffffffffffffffffffff19167effffffffffffffffffffffffffffffffffffffffffffffffffffffffffffff19168152602001915050600060405180830381600087803b1515611a1957600080fd5b5af11515611a2657600080fd5b505050505600a165627a7a72305820f0b710eba02458f9d47b5f99ecef4b7bf1f1f949f19de0aaab0aa15ed43a2c3f0029",
  "source": "pragma solidity ^0.4.0;\nimport \"./usingOraclize.sol\";\n// Importing Oraclize\n\n\n\ncontract KrakenPriceTicker is usingOraclize {\n\n    string public ETHXBT;\n\n    event newOraclizeQuery(string description);\n    event newKrakenPriceTicker(string price);\n\n\n    function KrakenPriceTicker() {\n        OAR = OraclizeAddrResolverI(0x6f485C8BF6fc43eA212E93BBF8ce046C7f1cb475);\n       oraclize_setProof(proofType_TLSNotary | proofStorage_IPFS);\n      //  update();\n    }\n\n    function __callback(bytes32 myid, string result, bytes proof) {\n        if (msg.sender != oraclize_cbAddress()) throw;\n        ETHXBT = result;\n        newKrakenPriceTicker(ETHXBT);\n       // update();\n    }\n\n    function update() payable {\n        if (oraclize_getPrice(\"URL\") > this.balance) {\n            newOraclizeQuery(\"Oraclize query was NOT sent, please add some ETH to cover for the query fee\");\n        } else {\n            newOraclizeQuery(\"Oraclize query was sent, standing by for the answer..\");\n            oraclize_query(\"URL\", \"json(http://api.fixer.io/latest?symbols=USD,GBP).rates.GBP\");\n        }\n    }\n\n}\n",
  "sourcePath": "/Users/sergiopereira/Code/KrakenPriceTicker/contracts/KrakenPriceTicker.sol",
  "compiler": {
    "name": "solc",
    "version": "0.4.21+commit.dfe3193c.Emscripten.clang"
  },
  "schemaVersion": "2.0.0",
  "updatedAt": "2018-04-19T06:44:54.366Z"
}